:020000040800F2
:10000000700400209D010008A5010008A701000858
:10001000A9010008AB010008AD01000800000000C4
:10002000000000000000000000000000AF01000818
:10003000B101000800000000B301000851130008DE
:10004000B7010008B7010008B7010008B7010008B0
:10005000B7010008B701000849030008B70100080C
:10006000B7010008B7010008B7010008B701000890
:10007000B7010008B7010008B7010008B701000880
:10008000B7010008B701000811020008B701000815
:10009000B7010008B7010008B7010008B701000860
:1000A000B7010008B7010008B7010008B701000850
:1000B000B7010008B7010008B7010008B701000840
:1000C000B7010008B7010008B7010008B701000830
:1000D000B7010008B7010008B7010008B701000820
:1000E000B7010008B7010008B7010008B701000810
:1000F000B7010008B7010008B7010008B701000800
:10010000B7010008B7010008B7010008B7010008EF
:10011000B7010008B7010008B7010008B7010008DF
:10012000B7010008B7010008B7010008B7010008CF
:10013000B7010008B7010008B7010008B7010008BF
:10014000B7010008B7010008B7010008B7010008AF
:10015000B7010008B7010008B7010008B70100089F
:10016000B7010008B7010008B7010008B70100088F
:10017000B7010008B7010008B7010008000000003F
:10018000B7010008B7010008DFF80CD000F02EF826
:1001900000480047111600087004002006488047F8
:1001A00006480047FEE7FEE7FEE7FEE7FEE7FEE75C
:1001B000FEE7FEE7FEE7FEE70114000889010008FC
:1001C00030B50B46014600202022012409E021FA27
:1001D00002F59D4205D303FA02F5491B04FA02F524
:1001E0002844151EA2F10102F1DC30BD064C074D7A
:1001F00006E0E06840F0010394E8070098471034F7
:10020000AC42F6D3FFF7C4FF3017000850170008C0
:10021000014800F048B9000010000020484910B51E
:100220004A6822F440324A604A6843681A434A6086
:1002300001684A6822F480724A6001684A6803696A
:1002400042EA03224A6001684A6822F040724A602A
:1002500001684A6883681A434A6001688A6822F420
:1002600000628A6001688A68C3681A438A60816A8A
:100270006FF07062D14201688A6822F070628A6011
:1002800001688A680CD0836A1A438A6001688A68A8
:1002900022F040528A6001688A68C36A1A4301E00A
:1002A00022F040528A6001688A6822F002028A6065
:1002B00001688A68836942EA43028A60016A002908
:1002C00001684A6815D042F400624A6001684A68D1
:1002D00022F460424A6001684B684FF46044426A0D
:1002E00094FAA4F4B4FA84F4521EA24013434B606F
:1002F00002E022F400624A600168CA6A22F47002D5
:10030000CA620168CA6A838B0E4C04EB03531A431A
:10031000CA6201688A6822F400728A6001688A6889
:10032000036B42EA43228A6001688A6822F4806291
:100330008A6001688A68406942EA8020886010BD4E
:10034000002301400000F0FF012000F09FBA704739
:1003500078B50024009490F83C20012A19D001229D
:1003600080F83C200A6807230568092A13D9EE683B
:100370000A3A02EB420293409E43EE600B788A6891
:100380000A3B03EB43039A400368DD682A43DA60C3
:1003900010E0022078BD2E6902EB420293409E439A
:1003A0002E610B788A6803EB43039A4003681D694A
:1003B0002A431A614A681F23072A13D205686E6B05
:1003C000521E02EB820293409E436E630B790A88B1
:1003D0005B1E92B203EB83039A4003685D6B2A4372
:1003E0005A6327E005680D2A12D22E6BD21F02EB4A
:1003F000820293409E432E630B790A88DB1F92B2E0
:1004000003EB83039A4003681D6B2A431A6311E0D0
:10041000EE6A0D3A02EB820293409E43EE620B7944
:100420000A880D3B92B203EB83039A400368DD6AAE
:100430002A43DA62164B0568144A9D4206D10D68BC
:10044000122D03D1556845F48005556005689D421D
:1004500018D10B68102B01D0112B13D1536843F422
:1004600000035360096810290CD10A490A4A096837
:10047000B1FBF2F101EB8101490000E0491E00915E
:100480000029FBD180F83C40002078BD00230140CA
:10049000002001400400002040420F0070477047D8
:1004A0000068C06C704770B5044600680168426817
:1004B000C1F34001C2F3401251B34AB3216CC906E3
:1004C00003D4216C41F400712164816811F0405F14
:1004D00017D1A169A9B9C16A11F4700F02D081685E
:1004E00049050ED4416821F020014160206C20F4C0
:1004F00080702064206CC00403D4206C40F00100A4
:1005000020642046FFF7CAFF21686FF012000860E0
:10051000206801684268C1F38001C2F3C01289B348
:1005200082B3216CC90603D4216C41F400512164CB
:10053000816811F4401F1ED1816B11F4401F02D05D
:100540008168490517D44168490514D4816811F0C0
:10055000405F10D1A16971B9416821F0800141600B
:10056000206C20F480502064206CC00503D4206CE3
:1005700040F0010020642046FFF7E9FE21686FF09B
:100580000C00086020680168426811F0010FC2F396
:1005900080120ED06AB10068C0070AD0206C40F407
:1005A00080302064204600F046F821686FF001009A
:1005B0000860206801684268C1F34011C2F380629C
:1005C00000290DD0002A0BD0616C41F0020161645A
:1005D0006FF0200505602046FFF761FF2068056089
:1005E00070BD70B504004FF0000503D0206C0026EC
:1005F00010B107E0012070BD666484F83C602046BD
:1006000000F01AF8206CC00610D4206C20F488503A
:1006100040F0020020642046FFF700FE6664206C74
:1006200020F0020040F00100206400E0012584F881
:100630003C60284670BD704700B50068104987B01F
:1006400088421AD10F480021026842F48072026089
:10065000006800F480700590022000900320CDE92E
:1006600001016946084800F01DF9002211461220D8
:1006700000F06AFA122000F05BFA07B000BD00003B
:1006800000200140443802400000024018B500211B
:10069000009190F83C20012A07D0012280F83C20EC
:1006A00002689368DB0702D011E0022018BD93684E
:1006B00043F001039360224A224B1268B2FBF3F22B
:1006C00002EB420200E0521E0092002AFBD10268B7
:1006D0009368DB0732D0036C40F20164A34343F418
:1006E0008073036453685B0505D5036C23F40053E2
:1006F00043F480530364036CDB0404D5436C23F0A0
:100700000603436400E0416480F83C100E4B6FF038
:100710002201116001684A680C4C22434A60596802
:100720000068C90602D00A49884207D1816811F0E1
:10073000405F03D1816841F080418160002018BD95
:100740000400002040420F0000230140200000046C
:100750000020014070B54379012B1AD00126467163
:100760000223037105682C6840F6FE7393409C4396
:10077000D1E900310B43934023432B6001680B68A0
:10078000C0249440A3430B600671002141710846C8
:1007900070BD022070BD70B5040003D02079002523
:1007A00010B105E0012070BD6571204600F008F829
:1007B00002202071256101202071002070BD000001
:1007C00000B500680C4987B0884212D10B4800215F
:1007D000026842F000520260006800F0005005908C
:1007E000102000900320CDE901016946044800F083
:1007F00059F807B000BD00000074004040380240C6
:100800000000024018B5046800940068104421B14B
:10081000143000900360002018BD0830F9E730B5AF
:100820004279012A16D00122427102230371036822
:100830001D6802FA01F425431D60002901680B6858
:100840000AD00C6803F4802304F46014B3F5802FFD
:100850000FD015E0022030BD0C6803F0040304F053
:100860003804042B0CD1382C0AD14B6843F0010317
:1008700005E0B4F5601F03D14B6843F002034B6001
:10088000027100214171084630BD7047044910B51E
:100890000A68024202D00860FFF7F7FF10BD0000AF
:1008A000143C01402DE9F84FDFF87CB100224FF0F5
:1008B00001084FF0030A4FF00F090BF1040E00BFBF
:1008C0000B6808FA02F42340A3426ED14D68022D52
:1008D00001D0122D0ED1D50800EB850CDCF820508C
:1008E0005607F70E09FA07F6B5430E69BE402E43C8
:1008F000CCF82060066855000F790AFA05FC07F06D
:10090000030726EA0C06AF40374307604E68012E06
:1009100005D0022E03D0112E01D0122E0ED18668E2
:10092000CF6826EA0C06AF40374387604668A64387
:100930000C79C4F30014944034434460C6688C6856
:1009400026EA0C06AC403443C4604C68E40065D52C
:10095000364C256845F480452560246822F003055F
:1009600004F480440094324C2E19D6F808489507B8
:100970002F0F09FA07F5AC432E4DA84201D10025EF
:1009800024E02D4DA84201D101251FE02B4DA842A6
:1009900001D102251AE02A4DA84201D1032515E014
:1009A000284DA84202D1042510E037E0264DA84288
:1009B00001D105250AE0254DA84201D1062505E013
:1009C000234DA84201D1072500E00825BD4025435D
:1009D000C6F80858DBF800405D464E689C43F603B5
:1009E00000D51C432C60DEF8004075464E689C43E1
:1009F000B60300D51C432C600B4D08352C684E689F
:100A00009C43F60200D51C432C60074D0C352C6826
:100A10004E689C43B60200D51C432C60521C102A21
:100A2000FFF44EAFBDE8F88F003C0140443802406F
:100A30000030014000000240000402400008024073
:100A4000000C024000100240001402400018024056
:100A5000001C02400AB1816170470904FBE70000F5
:100A60000148006870470000080000200248016843
:100A7000491C016070470000080000200B4810B5B9
:100A8000016841F400710160016841F48061016016
:100A9000016841F480710160032000F075F80020C6
:100AA00000F006F800F018F8002010BD003C0240ED
:100AB00010B5044607484FF47A710068B0FBF1F0B6
:100AC00000F007FB00222146501E00F03DF80020F8
:100AD00010BD00000400002010B5072000F054F8FD
:100AE000002211466FF00B0000F02EF80022114694
:100AF0006FF00A0000F028F8002211466FF009009C
:100B000000F022F800221146501F00F01DF80022CC
:100B10001146101F00F018F800221146901E00F038
:100B200013F80022BDE810401146501E00F00CB82A
:100B300000F01F02012191404009800000F1E020F7
:100B4000C0F8001170470000F0B40E4B1B680C4653
:100B5000C3F30223C3F10705042D00D90425191D91
:100B6000072901D2002300E0DB1E012606FA05F169
:100B7000491E214099409E40761E16403143F0BCEC
:100B800000F0D6BB0CED00E0064900F00702086853
:100B90004FF6FF03184040EA0220034A1043086062
:100BA000704700000CED00E00000FA052DE9F04769
:100BB000DFF8649105460F46D9F8000000F00F01F8
:100BC000F8B28046B94208D2014689F80010D9F837
:100BD000000000F00F00B84274D128784F4C800715
:100BE00005D52068A96820F0F00008432060287827
:100BF000C00759D049496868083901281AD0022825
:100C00001BD0032819D00968890700295ADA2168FE
:100C100021F0030101432160FFF722FF69680646C6
:100C200041F28830012911D002291DD003298246C2
:100C300027D035E009688903E7E709688901E4E717
:100C4000FFF70EFF811B514501D926E0824620683F
:100C5000C0F381000128F3D126E000BFFFF700FFB9
:100C6000811B514501D918E082462068C0F38100FC
:100C70000228F3D118E000BFFFF7F2FE811B5145B7
:100C80000BD82068C0F381000328F5D10CE000BF29
:100C9000FFF7E6FE811B514502D90320BDE8F0872E
:100CA000206810F00C0FF3D1D9F80010484601F07D
:100CB0000F01B94208D980F80080006800F00F00E9
:100CC000B84201D00120E9E72878400705D520681F
:100CD000E96820F4E050084320602878000706D532
:100CE0002068296920F4604040EAC100206000F0DB
:100CF00021F82168F02292FAA2F201F0F001B2FA92
:100D000082F2D140064A515CC84006490860002082
:100D1000FFF7CEFE0020C1E7003C02400838024049
:100D200020170008040000200148006870470000F8
:100D30000400002030B51948006810F00C01184874
:100D400012D0441004290ED008290DD11349091FCF
:100D50000A6802F03F030A68550247F6C07204D5DC
:100D6000B4FBF3F003E0204630BDB0FBF3F00B68BA
:100D70000968134092FAA2F2B2FA82F2D3405843C1
:100D80004FF4403292FAA2F201F44031B2FA82F208
:100D9000D140491C4900B0FBF1F030BD0838024099
:100DA0000024F4002DE9F84F0546DFF8FC920078A6
:100DB000A9F1040BC007ABF1040449D0D9F8001025
:100DC0004846C1F38101012908D00068C0F38100C1
:100DD00002280AD1DBF80000400206D52068800313
:100DE00036D5686800286ED032E06868B0F5803F7C
:100DF00010D0B0F5A02F206810D020F480302060F3
:100E0000206820F4802020606868A0B1FFF728FEE9
:100E100006460CE0206840F48030F4E740F480207F
:100E20002060F7E7FFF71CFE801B642871D820685C
:100E30008003F7D50CE0FFF713FE064605E000BF80
:100E4000FFF70EFE801B6428F0D820688003F7D4DB
:100E50002878964F80074FF0010A4FF0000841D5DF
:100E6000D9F80010484611F00C0F08D00068C0F304
:100E7000810002280AD1DBF80000400206D4206875
:100E8000800713D5E86801281DD10FE0E868D8B1C4
:100E9000C7F800A0FFF7E4FD064604E0FFF7E0FD19
:100EA000801B0228C2D820688007F7D52068F82266
:100EB00092FAA2F22969B2FA82F220F0F800914087
:100EC000084320600EE0ECE0C7F80080FFF7C8FDA3
:100ED000064604E0FFF7C4FD801B022819D82068ED
:100EE0008007F7D42878000724D57148696989B14B
:100EF000C0F800A0FFF7B4FD064604E0FFF7B0FD20
:100F0000801B022805D868486C3000688007F5D53A
:100F100010E07AE0C0F80080FFF7A2FD064604E08A
:100F2000FFF79EFD801B02286FD85F486C30006879
:100F30008007F5D42878400753D55B4838300168DE
:100F400041F080510160006800F0805000905948E5
:100F5000016841F480710160FFF782FD064604E0FC
:100F6000FFF77EFD801B02284FD852480068C0055D
:100F7000F6D54D4EA868683601280FD00528306890
:100F800010D020F001003060306820F004003060A4
:100F9000A868B8B1FFF764FD00900FE0306840F03A
:100FA0000100F4E740F004003060F7E7FFF758FD78
:100FB0000099411A41F2883081426AD8306880072E
:100FC000F4D50EE0FFF74CFD009007E0FFF748FD79
:100FD0000099411A41F2883081425AD8306880071E
:100FE000F4D4A869E8B3D9F80010C1F3810102294B
:100FF00057D00228C7F8608003D0FFF731FD0546BF
:101000004AE0FFF72DFD064605E042E0FFF728FD28
:10101000801B02283DD820688001F7D4D5E907015C
:10102000084347F6C07292FAA2F2696AB2FA82F2F3
:101030009140AA6A4FF0FF3303EB52024FF4403362
:1010400093FAA3F3B3FA83F39A40114308434FF0A2
:10105000706292FAA2F2E96AB2FA82F2914008430F
:1010600000E01CE0CBF80000C7F860A0FFF7F8FC38
:10107000054604E0FFF7F4FC401B022809D820686D
:101080008001F7D50BE000BFFFF7EAFC401B022808
:1010900002D90320BDE8F88F20688001F4D4002035
:1010A000F8E70120F6E70000083802400000474258
:1010B000800E4742007000404FF0E021042808698C
:1010C00003D020F004000861704740F00400FAE704
:1010D000704710B5401EB0F1807F01D3012010BDD4
:1010E0004FF0E02460610F21601700F021F900202B
:1010F000A06107202061002010BD10B5FFF7E8FFB8
:1011000010BD00007FB5124810490024C0E900144A
:101110000461012505624FF0007184618160C9009E
:10112000C162C460C56145610A4904638162FFF719
:1011300058FA00B1FEE70095CDE90154694604482C
:10114000FFF706F9002800D0FEE77FBD0020014030
:10115000100000200100000F2DE9F04F6C4887B00F
:101160000024016841F010010160016801F01001E4
:101170000591016841F004010160016801F004017A
:101180000591016841F080010160016801F0800172
:101190000591016841F001010160016801F0010160
:1011A0000591016841F002010160016801F002014E
:1011B0000591016841F0080101600068002200F01B
:1011C0000800059008215348FFF744FC012211460E
:1011D0005148FFF73FFC4FF21009002249464F48A3
:1011E000FFF738FC082601250096CDE90154694631
:1011F00048480394FFF756FB0095CDE90154694632
:1012000045480394FFF74EFB00960226CDE90164A2
:101210000527CDE9034769463F48FFF743FB4048B0
:101220000095CDE90104DFF8FCA069465046FFF7C0
:1012300039FBE0200090CDE90164CDE90347694620
:101240005046FFF72FFB4FF00408CDE90084DFF88C
:10125000D8B0694658460294FFF724FBA8020090D4
:10126000CDE90164CDE9034769465846FFF71AFB0B
:10127000CDF80090CDE90154694628480394FFF762
:1012800011FB4FF4A4500090CDE901640620CDE994
:10129000034069462048FFF705FB6802CDE90004DA
:1012A000694650460294FFF7FDFA4FF4E050009073
:1012B000CDE901640A20CDE9034069465046FFF7B5
:1012C000F1FA2020CDE90004694614480294FFF7A2
:1012D000E9FA4FF4107000901220CDE90105CDE934
:1012E000034869465846FFF7DDFA10480096CDE9F5
:1012F000010469460748FFF7D5FA00221146062087
:10130000FFF722FC0620FFF713FC07B0BDE8F08FC3
:10131000303802400010024000080240000C024039
:1013200000001110000002400004024000001210F2
:101330000907090E002806DA00F00F0000F1E0208E
:1013400080F8141D704700F1E02080F80014704709
:1013500010B5FFF78BFBBDE81040FFF7CEBE0000D5
:1013600030B5254893B00025016841F080510160F7
:10137000006800F0805011902048016841F48041DD
:1013800001600068022400F4804011900120009068
:10139000000401908001CDE90640082008904FF438
:1013A000A870CDE9090407200B906846FFF7FAFC06
:1013B00000B1FEE70CA90F2081E831004FF4C050C6
:1013C0000F904FF4A050109005210CA8FFF7EEFBF2
:1013D00000B1FEE7FFF7A8FC4FF47A71B0FBF1F023
:1013E000FFF777FE0420FFF767FE00221146501E2C
:1013F000FFF7AAFB13B030BD403802400070004038
:101400001048016841F4700101600F48016841F023
:10141000010101600C4A00210832116002680B4B87
:101420001A400260031D0A4A1A60026822F48022F0
:10143000026005480C300160024958068039086096
:101440007047000088ED00E000380240FFFFF6FE24
:10145000103000240FB4054B10B503A9044A0298BC
:1014600000F018F810BC5DF814FB0000E915000846
:101470000C00002002E008C8121F08C1002AFAD19F
:1014800070477047002001E001C1121F002AFBD104
:10149000704700002DE9FF4F89B09B4604460025A8
:1014A00006E025280BD05A460B999047641C6D1C0A
:1014B00020780028F5D10DB02846BDE8F08F002730
:1014C000B8460122474900E0074314F8013F203B9A
:1014D00002FA03F00842F7D120782E2819D114F827
:1014E000010F47F004072A280ED06FF02F02207852
:1014F000A0F1300109290CD808EB880102EB410169
:1015000000EB0108641CF2E70A98641C50F8048B95
:101510000A9020780028CED0642808D0692806D008
:1015200075281ED05A460B9990476D1C58E00A99B1
:101530004FF00A0901C90A91002802DA40422D2120
:1015400002E0390504D52B218DF82010012103E09C
:10155000F90704D02021F7E78A4608AE0DE0002104
:10156000FAE70A994FF00A0901C90A91F7E74946D3
:10157000FEF726FE303106F8011D0028F7D1ADEB4D
:10158000060000F12009780701D44FF00108C84592
:1015900002DDA8EB090000E000208046002706E0FD
:1015A00008A85A46C05D0B9990476D1C7F1C574593
:1015B000F6DB04E030205A460B9990476D1CB8F1D9
:1015C0000001A8F10108F5DC05E016F8010B5A4608
:1015D0000B9990476D1CB9F10001A9F10109F4DCE8
:1015E000641C65E70928010008490968C90706D095
:1015F000064980390968CA074FF0604101D1704738
:1016000000BF0A68002AFBD008707047800E00E017
:101610001CB5FFF733FAFFF7A3FEFFF79DFDFFF7B9
:1016200071FD3649344808600846FFF7B4F800B148
:10163000FEE7002000900246019069462F48FFF720
:1016400089F800B1FEE700212C48FFF7E8F80023F5
:10165000082219462948FFF7D5F8284801244838B8
:10166000FFF714F825484838FEF71AFF244D254F98
:10167000254E4FF400484FF400594FF4805A4FF470
:10168000804B2860014621A0FFF7E4FE2346641C3E
:10169000082200211948FFF7B5F83869C00710D0B3
:1016A000012241463046FFF7D5F90122494630462E
:1016B000FFF7D0F9002251463046FFF7CBF9002260
:1016C0000FE0002241463046FFF7C4F900224946A8
:1016D0003046FFF7BFF9012251463046FFF7BAF90D
:1016E000012259463046FFF7B5F904484838FEF75D
:1016F000D7FE2860C6E700000074004058000020B4
:101700000000002000000240000C02404144432041
:10171000676F742076616C75653A2025640A000055
:101720000000000000000000010203040607080991
:10173000501700080000002010000000741400087A
:1017400060170008100000206004000084140008E6
:10175000000000000024F400000000000000000071
:040000050800018965
:00000001FF
