:020000040800F2
:10000000B00400209D010008A5010008A701000818
:10001000A9010008AB010008AD01000800000000C4
:10002000000000000000000000000000AF01000818
:10003000B101000800000000B3010008811A0008A7
:10004000B7010008B7010008B7010008B7010008B0
:10005000B7010008B7010008C9090008B701000886
:10006000B7010008B7010008B7010008B701000890
:10007000B7010008B7010008B7010008B701000880
:10008000B7010008B701000891080008B70100088F
:10009000B7010008B7010008B7010008B701000860
:1000A000B7010008B7010008B7010008B701000850
:1000B000B7010008B7010008B7010008B701000840
:1000C000B7010008B7010008B7010008B701000830
:1000D000B7010008B7010008B7010008B701000820
:1000E000B7010008B7010008B7010008B701000810
:1000F000B7010008B7010008B7010008B701000800
:10010000B7010008B7010008B7010008B7010008EF
:10011000B7010008B7010008B7010008B7010008DF
:10012000B7010008B7010008B7010008B7010008CF
:10013000B7010008B7010008B7010008B7010008BF
:10014000B7010008B7010008B7010008B7010008AF
:10015000B7010008B7010008B7010008B70100089F
:10016000B7010008B7010008B7010008B70100088F
:10017000B7010008B7010008B7010008000000003F
:10018000B7010008B7010008DFF80CD000F0E0FA72
:10019000004800479D250008B0040020064880471D
:1001A00006480047FEE7FEE7FEE7FEE7FEE7FEE75C
:1001B000FEE7FEE7FEE7FEE7C91B0008890100082D
:1001C00040EA01039B0703D009E008C9121F08C0D9
:1001D000042AFAD203E011F8013B00F8013B521E59
:1001E000F9D2704700F0004230F000400AD0C10D53
:1001F00001F56071C0F3160042EA0151C2084007E0
:100200001143704700200146704701F0004330B4AD
:1002100021F0004150EA010206D00A0DA2F56072F9
:10022000C1F31301002A02DC30BC00207047440FE8
:1002300044EAC104C100E01830BC00EBC25000F039
:1002400047B830B50B46014600202022012409E0C2
:1002500021FA02F59D4205D303FA02F5491B04FA7F
:1002600002F52844151EA2F10102F1DC30BD2DE992
:10027000F05F0546002092469B468846064681462A
:1002800040241BE0284641464746224600F081FABA
:1002900053465A46C01A914110D311461846224679
:1002A00000F068FA2D1A67EB01084F46224601203C
:1002B000002100F05FFA17EB00094E41201EA4F167
:1002C0000104DFDC484631462A464346BDE8F09F3C
:1002D0000029A8BF7047401C490008BF20F001005A
:1002E000704710B4B0FA80FC00FA0CF050EA010438
:1002F00004BF10BC704749B1CCF1200421FA04F4CA
:1003000011FA0CF118BF012121430843A3EB0C01A2
:10031000CB1D4FEA00614FEA102042BF002010BC05
:10032000704700EBC35010440029A4BF10BC7047B5
:10033000401C490008BF20F0010010BC70472DE9A7
:10034000FE4F804681EA0300C00F0C46009021F06A
:10035000004123F00045B8EB0200A94105D2404618
:10036000214690461C460B46024623F000401043AF
:1003700047D0270DC7F30A00C3F30A510290401A71
:10038000019040286BDAC3F3130040F4801B0098FF
:10039000924620B10023D2EB030A63EB0B0B0198CA
:1003A0005946C0F14002504600F0E4F906460D46B9
:1003B00050465946019A00F0FCF910EB08006141E3
:1003C000002487EA115284EAE7731A4340D0009A66
:1003D00062B3019A012A4FEA075215DC001B61EB58
:1003E00002014FF0004202EA0752CDE90042001C30
:1003F00041F5801132462B4600F0FCF903B0BDE810
:10040000F08F40462146F9E7001B61EB0201001C1A
:1004100041F5801300185B412018A2F5001747EB47
:10042000030140EAD570B6196D4111E06D084FEA3D
:10043000360645EAC0754FEA0752001B61EB020120
:10044000001C41F5801149084FEA30000019514164
:1004500032462B4603B0BDE8F04F00F0BCB900981F
:10046000012240000023D0EB020263EBE07300980E
:1004700021464FEAE074B8EB000061EB0401E9E7C4
:1004800083F000435BE781F0004158E72DE9FE4F20
:1004900081EA030404F0004421F0004100944FF08D
:1004A000000B23F0004350EA01045ED052EA03043B
:1004B0005BD0C3F30A54C1F30A552C44A4F2F334BD
:1004C0000194A0FB0254C1F3130141F48011C3F362
:1004D000130343F4801301FB024400FB034E840A20
:1004E000970A44EA815447EA8357A4FB07680295B8
:1004F0008D0A05FB07854FEA932C04FB0C54270556
:10050000029D4FEA065847EA1637B5EB08056EEB31
:10051000070C870E920E47EA811742EA8312A7FB67
:100520000201B6EB0B0164EB00042B0D43EA0C3324
:100530005E1844EB1C50DA465146E7FB0201C5F356
:1005400013044FEA0B3343EA14534FEA0432019C7D
:1005500043EA0603A4F10C040294009CCDE900B424
:1005600000F048F903B0BDE8F08F00200146F9E73C
:100570002DE9F04D81EA030404F0004B21F0004521
:1005800014464FF0000A23F0004150EA050220D043
:1005900054EA01021DD0C5F30A570246C5F31303FE
:1005A000C1F31300C1F30A5640F4801543F48013DD
:1005B000A7EB0608101BD64608F2FD3873EB0500C2
:1005C00002D308F1010801E092185B41B8F1000F75
:1005D00003DA00200146BDE8F08D00204FF48011C1
:1005E000064684460EE0171B73EB050705D3121B66
:1005F00063EB050306434CEA010C49084FEA30005F
:1006000092185B4150EA0107EDD152EA030012D083
:1006100082EA040083EA0501084305D0101BAB41C0
:1006200006D20122002306E000224FF0004302E040
:100630006FF0010253101AEB06004CEB085110EB5F
:100640000A0041EB0B01BDE8F04D00F0C4B82DE904
:10065000F04D00231A461B1A8A4103DB0020014695
:10066000BDE8F08DC1F30A52C1F3130141F48015C6
:100670004FF0000BD10702D100186D41521E002728
:10068000044640F2FF11384601EB620A3E468046BE
:10069000024600204FF4801100F07BF8C21971412E
:1006A000BB1846EB0100B4EB030C75EB000C04D354
:1006B000E41A65EB000517460E46241908F10100FF
:1006C0006D4180463428E3DDF91946EB0600091B2D
:1006D000A84103D24FF0FF32134601E00022134637
:1006E0001BEB070046EB0A51BDE8F04D00F073B874
:1006F000C1F30A52C1F3130140F2FF3341F48011F8
:100700009A4202DA00200146704740F233439A428F
:10071000A2F2334202DC524200F03BB800F02AB8A9
:1007200030B5041E71F1000404DB4FF00044404278
:1007300064EB0101141E73F1000405DB1C464FF04D
:100740000043524263EB0403994208BF904230BD1C
:10075000064C074D06E0E06840F0010394E807000E
:1007600098471034AC42F6D3FFF712FD4427000837
:1007700064270008202A04DB203A00FA02F1002056
:1007800070479140C2F1200320FA03F319439040CF
:100790007047202A04DB203A21FA02F0002170473A
:1007A00021FA02F3D040C2F12002914008431946D9
:1007B0007047202A06DBCB17203A41FA02F043EAC1
:1007C000E07306E041FA02F3D040C2F1200291400A
:1007D00008431946704710B5141E73F1000408DA77
:1007E000401C41F1000192185B411A4301D120F0F5
:1007F000010010BD2DE9F04D92469B4611B1B1FAB2
:1008000081F202E0B0FA80F220329046FFF7B2FFA8
:1008100004460F4640EA0A0041EA0B0153465A4695
:10082000084313D0114653EA010019D0C8F1400221
:100830005046FFF7AEFF05460E4650465946424623
:10084000FFF798FF084305D0012004E02046394611
:10085000BDE8F08D0020054346EAE0762C4337439F
:100860000A986305E40AA0EB08000022FD0A44EAA6
:1008700047540A3002D500200146E9E70105101966
:100880006941DDE9084500196941BDE8F04DA2E77D
:10089000014800F09FB900003C000020484910B515
:1008A0004A6822F440324A604A6843681A434A6000
:1008B00001684A6822F480724A6001684A680369E4
:1008C00042EA03224A6001684A6822F040724A60A4
:1008D00001684A6883681A434A6001688A6822F49A
:1008E00000628A6001688A68C3681A438A60816A04
:1008F0006FF07062D14201688A6822F070628A608B
:1009000001688A680CD0836A1A438A6001688A6821
:1009100022F040528A6001688A68C36A1A4301E083
:1009200022F040528A6001688A6822F002028A60DE
:1009300001688A68836942EA43028A60016A002981
:1009400001684A6815D042F400624A6001684A684A
:1009500022F460424A6001684B684FF46044426A86
:1009600094FAA4F4B4FA84F4521EA24013434B60E8
:1009700002E022F400624A600168CA6A22F470024E
:10098000CA620168CA6A838B0E4C04EB03531A4394
:10099000CA6201688A6822F400728A6001688A6803
:1009A000036B42EA43228A6001688A6822F480620B
:1009B0008A6001688A68406942EA8020886010BDC8
:1009C000002301400000F0FF012000F0F7BA000012
:1009D0002DE9F04186B08846044614221D49684638
:1009E000FFF7EEFB1D4B05221D4D19689FED1A0AFE
:1009F00091FBF2F002FB101691FBF2F002FB1010DB
:100A0000491C45F8204000206C46196016E0371A52
:100A100097FBF2FC02FB1C777F1D97FBF2FC02FBAD
:100A20001C7755F8277000EE907A04EB8007401C85
:100A3000F8EEE00A97ED001A00EE810A884201DA2A
:100A40000528E4DB0A2900D11A6088ED000A06B007
:100A5000BDE8F081202700080000000018000020F9
:100A6000980000207047000078B50024009490F8AA
:100A70003C20012A19D0012280F83C200A68072373
:100A80000568092A13D9EE680A3A02EB420293403C
:100A90009E43EE600B788A680A3B03EB43039A405F
:100AA0000368DD682A43DA6010E0022078BD2E6911
:100AB00002EB420293409E432E610B788A6803EB5F
:100AC00043039A4003681D692A431A614A681F2339
:100AD000072A13D205686E6B521E02EB8202934006
:100AE0009E436E630B790A885B1E92B203EB83030D
:100AF0009A4003685D6B2A435A6327E005680D2A14
:100B000012D22E6BD21F02EB820293409E432E63C1
:100B10000B790A88DB1F92B203EB83039A400368C8
:100B20001D6B2A431A6311E0EE6A0D3A02EB820252
:100B300093409E43EE620B790A880D3B92B203EB21
:100B400083039A400368DD6A2A43DA62164B05681C
:100B5000144A9D4206D10D68122D03D1556845F403
:100B60008005556005689D4218D10B68102B01D097
:100B7000112B13D1536843F4000353600968102903
:100B80000CD10A490A4A0968B1FBF2F101EB810173
:100B9000490000E0491E00910029FBD180F83C404B
:100BA000002078BD00230140002001402C000020DF
:100BB00040420F0010B500F00AF80349C860086809
:100BC000401C086010BD0000040000207047006851
:100BD000C06C704770B50446006801684268C1F394
:100BE0004001C2F3401251B34AB3216CC90603D489
:100BF000216C41F400712164816811F0405F17D1CC
:100C0000A169A9B9C16A11F4700F02D081684905C0
:100C10000ED4416821F020014160206C20F48070E6
:100C20002064206CC00403D4206C40F001002064D8
:100C30002046FFF7BFFF21686FF0120008602068B0
:100C400001684268C1F38001C2F3C01289B382B364
:100C5000216CC90603D4216C41F4005121648168E0
:100C600011F4401F1ED1816B11F4401F02D0816826
:100C7000490517D44168490514D4816811F0405FD3
:100C800010D1A16971B9416821F080014160206CE7
:100C900020F480502064206CC00503D4206C40F008
:100CA000010020642046FFF7DDFE21686FF00C0094
:100CB000086020680168426811F0010FC2F38012D9
:100CC0000ED06AB10068C0070AD0206C40F48030B2
:100CD0002064204600F046F821686FF001000860AB
:100CE000206801684268C1F34011C2F380620029A4
:100CF0000DD0002A0BD0616C41F0020161646FF0ED
:100D0000200505602046FFF761FF2068056070BD83
:100D100070B504004FF0000503D0206C002610B120
:100D200007E0012070BD666484F83C60204600F056
:100D30001BF8206CC00610D4206C20F4885040F0C2
:100D4000020020642046FFF7A9FD6664206C20F0B5
:100D5000020040F00100206400E0012584F83C60BE
:100D6000284670BD7047000000B50068104987B084
:100D700088421AD10F480021026842F48072026052
:100D8000006800F480700590022000900320CDE9F7
:100D900001016946084800F01DF9002211461220A1
:100DA00000F06AFA122000F05BFA07B000BD000004
:100DB00000200140443802400000024018B50021E4
:100DC000009190F83C20012A07D0012280F83C20B5
:100DD00002689368DB0702D011E0022018BD936817
:100DE00043F001039360224A224B1268B2FBF3F2F4
:100DF00002EB420200E0521E0092002AFBD1026880
:100E00009368DB0732D0036C40F20164A34343F4E0
:100E10008073036453685B0505D5036C23F40053AA
:100E200043F480530364036CDB0404D5436C23F068
:100E30000603436400E0416480F83C100E4B6FF001
:100E40002201116001684A680C4C22434A605968CB
:100E50000068C90602D00A49884207D1816811F0AA
:100E6000405F03D1816841F080418160002018BD5E
:100E70002C00002040420F0000230140200000040D
:100E80000020014070B54379012B1AD0012646712C
:100E90000223037105682C6840F6FE7393409C435F
:100EA000D1E900310B43934023432B6001680B6869
:100EB000C0249440A3430B60067100214171084691
:100EC00070BD022070BD70B5040003D020790025EC
:100ED00010B105E0012070BD6571204600F008F8F2
:100EE00002202071256101202071002070BD0000CA
:100EF00000B500680C4987B0884212D10B48002128
:100F0000026842F000520260006800F00050059054
:100F1000102000900320CDE901016946044800F04B
:100F200059F807B000BD000000740040403802408E
:100F30000000024018B5046800940068104421B114
:100F4000143000900360002018BD0830F9E730B578
:100F50004279012A16D001224271022303710368EB
:100F60001D6802FA01F425431D60002901680B6821
:100F70000AD00C6803F4802304F46014B3F5802FC6
:100F80000FD015E0022030BD0C6803F0040304F01C
:100F90003804042B0CD1382C0AD14B6843F00103E0
:100FA00005E0B4F5601F03D14B6843F002034B60CA
:100FB000027100214171084630BD7047044910B5E7
:100FC0000A68024202D00860FFF7F7FF10BD000078
:100FD000143C01402DE9F84FDFF87CB100224FF0BE
:100FE00001084FF0030A4FF00F090BF1040E00BF88
:100FF0000B6808FA02F42340A3426ED14D68022D1B
:1010000001D0122D0ED1D50800EB850CDCF8205054
:101010005607F70E09FA07F6B5430E69BE402E4390
:10102000CCF82060066855000F790AFA05FC07F035
:10103000030726EA0C06AF40374307604E68012ECF
:1010400005D0022E03D0112E01D0122E0ED18668AB
:10105000CF6826EA0C06AF40374387604668A64350
:101060000C79C4F30014944034434460C6688C681F
:1010700026EA0C06AC403443C4604C68E40065D5F5
:10108000364C256845F480452560246822F0030528
:1010900004F480440094324C2E19D6F80848950781
:1010A0002F0F09FA07F5AC432E4DA84201D10025B8
:1010B00024E02D4DA84201D101251FE02B4DA8426F
:1010C00001D102251AE02A4DA84201D1032515E0DD
:1010D000284DA84202D1042510E037E0264DA84251
:1010E00001D105250AE0254DA84201D1062505E0DC
:1010F000234DA84201D1072500E00825BD40254326
:10110000C6F80858DBF800405D464E689C43F6037D
:1011100000D51C432C60DEF8004075464E689C43A9
:10112000B60300D51C432C600B4D08352C684E6867
:101130009C43F60200D51C432C60074D0C352C68EF
:101140004E689C43B60200D51C432C60521C102AEA
:10115000FFF44EAFBDE8F88F003C01404438024038
:10116000003001400000024000040240000802403C
:10117000000C02400010024000140240001802401F
:10118000001C02400AB1816170470904FBE70000BE
:1011900001480068704700003000002002480168E4
:1011A000491C016070470000300000200B4810B55A
:1011B000016841F400710160016841F480610160DF
:1011C000016841F480710160032000F075F800208F
:1011D00000F006F800F018F8002010BD003C0240B6
:1011E00010B5044607484FF47A710068B0FBF1F07F
:1011F00000F007FB00222146501E00F03DF80020C1
:1012000010BD00002C00002010B5072000F054F89D
:10121000002211466FF00B0000F02EF8002211465C
:101220006FF00A0000F028F8002211466FF0090064
:1012300000F022F800221146501F00F01DF8002295
:101240001146101F00F018F800221146901E00F001
:1012500013F80022BDE810401146501E00F00CB8F3
:1012600000F01F02012191404009800000F1E020C0
:10127000C0F8001170470000F0B40E4B1B680C461C
:10128000C3F30223C3F10705042D00D90425191D5A
:10129000072901D2002300E0DB1E012606FA05F132
:1012A000491E214099409E40761E16403143F0BCB5
:1012B00000F0D6BB0CED00E0064900F0070208681C
:1012C0004FF6FF03184040EA0220034A104308602B
:1012D000704700000CED00E00000FA052DE9F04732
:1012E000DFF8649105460F46D9F8000000F00F01C1
:1012F000F8B28046B94208D2014689F80010D9F800
:10130000000000F00F00B84274D128784F4C8007DD
:1013100005D52068A96820F0F000084320602878EF
:10132000C00759D049496868083901281AD00228ED
:101330001BD0032819D00968890700295ADA2168C7
:1013400021F0030101432160FFF722FF696806468F
:1013500041F28830012911D002291DD0032982468B
:1013600027D035E009688903E7E709688901E4E7E0
:10137000FFF70EFF811B514501D926E08246206808
:10138000C0F381000128F3D126E000BFFFF700FF82
:10139000811B514501D918E082462068C0F38100C5
:1013A0000228F3D118E000BFFFF7F2FE811B514580
:1013B0000BD82068C0F381000328F5D10CE000BFF2
:1013C000FFF7E6FE811B514502D90320BDE8F087F7
:1013D000206810F00C0FF3D1D9F80010484601F046
:1013E0000F01B94208D980F80080006800F00F00B2
:1013F000B84201D00120E9E72878400705D52068E8
:10140000E96820F4E050084320602878000706D5FA
:101410002068296920F4604040EAC100206000F0A3
:1014200021F82168F02292FAA2F201F0F001B2FA5A
:1014300082F2D140064A515CC8400649086000204B
:10144000FFF7CEFE0020C1E7003C02400838024012
:10145000342700082C000020014800687047000075
:101460002C00002030B51948006810F00C01184815
:1014700012D0441004290ED008290DD11349091F98
:101480000A6802F03F030A68550247F6C07204D5A5
:10149000B4FBF3F003E0204630BDB0FBF3F00B6883
:1014A0000968134092FAA2F2B2FA82F2D34058438A
:1014B0004FF4403292FAA2F201F44031B2FA82F2D1
:1014C000D140491C4900B0FBF1F030BD0838024062
:1014D0000024F4002DE9F84F0546DFF8FC9200786F
:1014E000A9F1040BC007ABF1040449D0D9F80010EE
:1014F0004846C1F38101012908D00068C0F381008A
:1015000002280AD1DBF80000400206D520688003DB
:1015100036D5686800286ED032E06868B0F5803F44
:1015200010D0B0F5A02F206810D020F480302060BB
:10153000206820F4802020606868A0B1FFF728FEB2
:1015400006460CE0206840F48030F4E740F4802048
:101550002060F7E7FFF71CFE801B642871D8206825
:101560008003F7D50CE0FFF713FE064605E000BF49
:10157000FFF70EFE801B6428F0D820688003F7D4A4
:101580002878964F80074FF0010A4FF0000841D5A8
:10159000D9F80010484611F00C0F08D00068C0F3CD
:1015A000810002280AD1DBF80000400206D420683E
:1015B000800713D5E86801281DD10FE0E868D8B18D
:1015C000C7F800A0FFF7E4FD064604E0FFF7E0FDE2
:1015D000801B0228C2D820688007F7D52068F8222F
:1015E00092FAA2F22969B2FA82F220F0F800914050
:1015F000084320600EE0ECE0C7F80080FFF7C8FD6C
:10160000064604E0FFF7C4FD801B022819D82068B5
:101610008007F7D42878000724D57148696989B113
:10162000C0F800A0FFF7B4FD064604E0FFF7B0FDE8
:10163000801B022805D868486C3000688007F5D503
:1016400010E07AE0C0F80080FFF7A2FD064604E053
:10165000FFF79EFD801B02286FD85F486C30006842
:101660008007F5D42878400753D55B4838300168A7
:1016700041F080510160006800F0805000905948AE
:10168000016841F480710160FFF782FD064604E0C5
:10169000FFF77EFD801B02284FD852480068C00526
:1016A000F6D54D4EA868683601280FD00528306859
:1016B00010D020F001003060306820F0040030606D
:1016C000A868B8B1FFF764FD00900FE0306840F003
:1016D0000100F4E740F004003060F7E7FFF758FD41
:1016E0000099411A41F2883081426AD830688007F7
:1016F000F4D50EE0FFF74CFD009007E0FFF748FD42
:101700000099411A41F2883081425AD830688007E6
:10171000F4D4A869E8B3D9F80010C1F38101022913
:1017200057D00228C7F8608003D0FFF731FD054687
:101730004AE0FFF72DFD064605E042E0FFF728FDF1
:10174000801B02283DD820688001F7D4D5E9070125
:10175000084347F6C07292FAA2F2696AB2FA82F2BC
:101760009140AA6A4FF0FF3303EB52024FF440332B
:1017700093FAA3F3B3FA83F39A40114308434FF06B
:10178000706292FAA2F2E96AB2FA82F291400843D8
:1017900000E01CE0CBF80000C7F860A0FFF7F8FC01
:1017A000054604E0FFF7F4FC401B022809D8206836
:1017B0008001F7D50BE000BFFFF7EAFC401B0228D1
:1017C00002D90320BDE8F88F20688001F4D40020FE
:1017D000F8E70120F6E70000083802400000474221
:1017E000800E4742007000404FF0E0210428086955
:1017F00003D020F004000861704740F00400FAE7CD
:10180000704710B5401EB0F1807F01D3012010BD9C
:101810004FF0E02460610F21601700F021F90020F3
:10182000A06107202061002010BD10B5FFF7E8FF80
:1018300010BD00007FB5124810490024C0E9001413
:10184000046184614FF0007104628160C900C1626B
:101850000125C460C56145610A4904638162FFF7DF
:1018600057FA00B1FEE70095CDE9015469460448F6
:10187000FFF7FAF8002800D0FEE77FBD0020014006
:101880003C0000200100000F2DE9F04F6C4887B0AC
:101890000024016841F010010160016801F01001AD
:1018A0000591016841F004010160016801F0040143
:1018B0000591016841F080010160016801F080013B
:1018C0000591016841F001010160016801F0010129
:1018D0000591016841F002010160016801F0020117
:1018E0000591016841F0080101600068002200F0E4
:1018F0000800059008215348FFF744FC01221146D7
:101900005148FFF73FFC4FF21009002249464F486B
:10191000FFF738FC082601250096CDE901546946F9
:1019200048480394FFF756FB0095CDE901546946FA
:1019300045480394FFF74EFB00960226CDE901646B
:101940000527CDE9034769463F48FFF743FB404879
:101950000095CDE90104DFF8FCA069465046FFF789
:1019600039FBE0200090CDE90164CDE903476946E9
:101970005046FFF72FFB4FF00408CDE90084DFF855
:10198000D8B0694658460294FFF724FBA80200909D
:10199000CDE90164CDE9034769465846FFF71AFBD4
:1019A000CDF80090CDE90154694628480394FFF72B
:1019B00011FB4FF4A4500090CDE901640620CDE95D
:1019C000034069462048FFF705FB6802CDE90004A3
:1019D000694650460294FFF7FDFA4FF4E05000903C
:1019E000CDE901640A20CDE9034069465046FFF77E
:1019F000F1FA2020CDE90004694614480294FFF76B
:101A0000E9FA4FF4107000901220CDE90105CDE9FC
:101A1000034869465846FFF7DDFA10480096CDE9BD
:101A2000010469460748FFF7D5FA0022114606204F
:101A3000FFF722FC0620FFF713FC07B0BDE8F08F8C
:101A4000303802400010024000080240000C024002
:101A500000001110000002400004024000001210BB
:101A60000907090E002806DA00F00F0000F1E02057
:101A700080F8141D704700F1E02080F800147047D2
:101A80002DE9F041FFF78AFBFFF7CFFE2148FFF772
:101A900095F921480021026820489AB30268521C37
:101AA0000260042A33DD1E4C0160032120681D4DB5
:101AB000401C90FBF1F201FB12004FF40046206045
:101AC000002231462846FFF75DFBB7100022394659
:101AD0002846FFF757FB4FF480580022414628461E
:101AE000FFF750FB206850B101280CD002280ED11E
:101AF000012239462846BDE8F041FFF743BB0122E9
:101B00003146F7E702E001224146F3E70160BDE814
:101B1000F08100003C0000200800002000000020B0
:101B20000C000020000C024030B5254893B0002581
:101B3000016841F080510160006800F08050119010
:101B40002048016841F4804101600068022400F4EB
:101B50008040119001200090000401908001CDE9A7
:101B60000640082008904FF4A870CDE9090407202A
:101B70000B906846FFF7AEFC00B1FEE70CA90F2002
:101B800081E831004FF4C0500F904FF4A0501090F6
:101B900005210CA8FFF7A2FB00B1FEE7FFF75CFCF4
:101BA0003221B0FBF1F0FFF72CFE0420FFF71CFE02
:101BB00000221146501EFFF75FFB13B030BD00003E
:101BC00040380240007000401048016841F4700144
:101BD00001600F48016841F0010101600C4A0021D9
:101BE0000832116002680B4B1A400260031D0A4A5A
:101BF0001A60026822F48022026005480C300160FD
:101C000002495806803908607047000088ED00E0FE
:101C100000380240FFFFF6FE103000240FB4054BE1
:101C200010B503A9044A029800F00CF910BC5DF845
:101C300014FB0000752500083400002000B52DEDD0
:101C4000048BB0EE409AF0EE609A83B051EC190B21
:101C5000FEF7FDFC41EC180B18EE100A18EE901A76
:101C60008DED008B002818BF0120084320F00040B4
:101C7000C0F17F6000F1E040C00F14D019EE101ADF
:101C800019EE900A8DED009B002918BF0121084331
:101C900020F00040C0F17F6000F1E040C00F04BFC1
:101CA000012000F017F8B0EE480A03B0F0EE680A21
:101CB000BDEC048B00BD02E008C8121F08C1002A59
:101CC000FAD170477047002001E001C1121F002ABD
:101CD000FBD17047014908607047000038000020C0
:101CE0002DE9FF5FDDE90220010DDDF838B0024388
:101CF00018D044F61050A1F2FF3141430D140F9853
:101D0000012820D0A5EB0B00401C5FEA000A4FF031
:101D10000004474EDFF81C91A046504616D5CAF184
:101D2000000728E00F98012443A2012808D00021D1
:101D300000980F9BC0E90021C0E90243BDE8FF9F66
:101D40006FEA0B01F4E7CBF10000DEE7074612E093
:101D5000F80707D02246334640464946FEF796FB31
:101D6000804689462246334610461946FEF78EFBCA
:101D700004460E467F10002FEAD1DDE90201BAF1D8
:101D8000000F42464B4602DAFEF780FB01E0FEF709
:101D9000EFFB04460E460022284BFEF7C1FC03D899
:101DA0004FF0FF30014607E00022254B2046314628
:101DB000FEF7C5FAFEF79CFC102409E0002C0ADBB4
:101DC0000A220023FEF753FA019B30321A55641E93
:101DD00050EA0102F2D1641C019AC4F111031444C7
:101DE0000F9A012A03D0012208430DD10AE00843CB
:101DF00004D000204FF0110B0F9080E7A3EB0B05F0
:101E00006D1E0DE05B4504DD4FF0000205F101059C
:101E100004E003DA4FF00002A5F10105002AECD03E
:101E200000980F99C0E90231C0E9004586E700003B
:101E3000000024400000F03F300000000000F043AC
:101E40000000E03F2DE9FF4F95B09B4689460646CE
:101E500000250FE2252877D100242746F84A0121E2
:101E6000059400E0044316F8013F203B01FA03F01B
:101E70001042F7D130782A2811D06FF02F03307834
:101E8000A0F13002092A16D8059A44F0020402EBA8
:101E9000820203EB42021044761C0590EFE759F8EA
:101EA000042B0592002A03DA504244F400540590B2
:101EB00044F00204761C30782E2816D116F8010F53
:101EC00044F004042A280DD06FF02F023078A0F1DE
:101ED0003003092B09D807EB870302EB4303C7182C
:101EE000761CF3E759F8047B761C30786C280FD009
:101EF00006DC4C2817D068280DD06A2814D104E0DD
:101F0000742810D07A280FD10DE044F400140AE0B0
:101F100044F4801401E044F440147278824202D107
:101F200004F58014761C761C307866280BD013DC00
:101F3000582877D009DC002875D04528F6D04628E7
:101F4000F4D047281AD19DE118E0632835D06428E1
:101F500079D0652812D195E1702873D008DC672804
:101F6000F1D069286FD06E280DD06F2806D1B5E06A
:101F700073282CD0752875D0782874D05A461799B4
:101F800090476D1C75E1C4F30250022809D0032864
:101F90000DD0D9F8001004280DD00D6009F1040906
:101FA00067E1D9F80010EA17C1E90052F6E7D9F85D
:101FB00000100D80F2E70D70F0E719F8041B8DF8A2
:101FC000001000208DF80100EA46012003E059F8D6
:101FD00004AB4FF0FF3061074FF0000102D40DE079
:101FE00008F101018846B9420FDA8045F8DB1AF89A
:101FF00008100029F4D108E008F101018846814267
:10200000FADB1AF808100029F6D105985B46A0EB18
:10201000080721463846179A00F094FA284400EB46
:10202000080507E04DE029E10DE01AF8010B5A46DA
:1020300017999047B8F10108F7D25B462146384618
:10204000179A13E142E00A220092C4F302524FF0C1
:10205000000A022A08D059F804CB032A4FEAEC718F
:102060000AD00DE029E02AE009F1070121F007027A
:10207000F2E802C1914609E00FFA8CFC4FEAEC71DC
:10208000042A03D14FFA8CFC4FEAEC71002907DADD
:102090000A460021DCF1000C61EB02012D2202E076
:1020A000220504D52B228DF80420012203E0E2074B
:1020B00001D02022F7E7904659E00A2102E01022E1
:1020C0000DE010214FF0000A00910BE010224FF0BC
:1020D000000A44F004040827009203E008224FF0AD
:1020E000000A0092C4F30252022A05D059F804CB28
:1020F0000021032A08D009E009F1070121F00702B5
:10210000F2E802C1914605E01FFA8CFC042A01D1D5
:102110000CF0FF0C4FF00008220728D5702806D0DD
:10212000009B83F0100353EA0A0305D00EE040221F
:102130008DF80420012208E05CEA010206D030227A
:102140008DF804208DF8050002229046009B83F054
:10215000080353EA0A030AD15CEA010201D16207CB
:1021600005D530228DF804204FF001087F1E582835
:1021700004D034A003900EA802900DE036A0F9E739
:1021800053466046009AFEF772F884460398825CD4
:102190000298401E029002705CEA0100F0D10298A1
:1021A00006A9081A00F1200A600702D524F4803439
:1021B00000E00127574502DDA7EB0A0000E0002000
:1021C00000EB0A01009005984144401A0590E00395
:1021D00006D45B462146179A059800F0B3F90544EA
:1021E000002706E001A85A46C05D179990476D1C6C
:1021F0007F1C4745F6DBE0030CD55B462146179A6A
:10220000059800F09FF9054404E030205A461799DC
:1022100090476D1C0099481E00900029F5DC08E0ED
:10222000029802995A460078491C029117999047E2
:102230006D1CBAF10001AAF1010AF1DC65E10000B0
:10224000092801003031323334353637383961628C
:102250006364656600000000303132333435363750
:1022600038394142434445460000000000F058F927
:102270000544761C307800287FF4ECAD19B0284670
:10228000BDE8F08F620700D4062709F1070222F0AB
:10229000070CFCE80223E14603F000485FEA080C63
:1022A00002D00FF2702C0DE05FEA045C02D50FF251
:1022B000682C07E05FEAC47C02D00FF2602C01E0DA
:1022C000AFF2700C4FF0FF3823F00043CDF850C050
:1022D00065280CD006DC452809D046281DD04728A3
:1022E0003DD13DE0662818D067287ED138E0002136
:1022F000112F01DB112000E0781CCDE9000106A9B7
:102300000EA8FFF7EDFCDDE90F010E9A0391002105
:10231000009207F1010A04914DE04FF00040009750
:10232000CDE9011006A90EA8FFF7DAFCDDE90F02DE
:1023300003920E9B11990022DDF80CA000930492E9
:1023400011B9791C00EB010AB7EB0A0004D4C0F103
:10235000FF3007F1010A0490AAEB0700019044E066
:10236000012F00DA01270021112F01DD112000E0EB
:102370003846CDE9000106A90EA8FFF7B1FCDDE95A
:102380000F010E9A0391002104910092BA46210791
:102390000CD40399514500DA8A46BAF1010F05DDE4
:1023A000009AAAF10101515C302908D0B84202DA42
:1023B00010F1040F06DA0121CDE9011015E0AAF1B0
:1023C0000101E9E7002805DC049901440491AAEB26
:1023D000000102E0411C514500DD8A460499401A83
:1023E000401C01904FF000400290200704D4019857
:1023F000504501DBCDF8048000208DF84F00029895
:102400000DF14F07B0F1004F25D02B200E90029810
:102410004FF0020800280CDA404202902D200E9066
:1024200007E00A210298FDF70CFF3031029007F80F
:10243000011DB8F10001A8F10108F2DC02980028A2
:10244000EFD1791E0E980870307800F0200040F02F
:10245000450007F8020D12A8C01B00F107081498E8
:10246000007800B1012000EB0A01019801EBE07156
:1024700005984144401A401E0590E00306D45B468F
:102480002146179A059800F05DF8054414980078E5
:1024900018B15A46179990476D1CE00324D55B4646
:1024A0002146179A059800F04DF805441CE0049861
:1024B000002807DBDDE90301884203DD0098405C6A
:1024C000179901E0179930205A469047049805F172
:1024D0000105401C04900198401E019004D12E205B
:1024E0005A46179990476D1CBAF10001AAF1010AEA
:1024F000DDDC05E017F8010B5A46179990476D1C73
:10250000B8F10001A8F10108F4DC5B462146179AF6
:102510000598ABE62D0000002B0000002000000015
:102520002DE9F041044600251E461746880404D4D0
:1025300005E039462020B0476D1C641EF9D52846B9
:10254000BDE8F0812DE9F041044600251E46904685
:10255000C80301D5302700E02027880404D505E012
:1025600041463846B0476D1C641EF9D52846BDE883
:10257000F081000008490968C90706D0064980397A
:102580000968CA074FF0604101D1704700BF0A686F
:10259000002AFBD008707047800E00E086B0FEF77E
:1025A00005FEFFF7C1FAFFF76FF9FFF743F92F496F
:1025B0002D4808600846FEF786FC00B1FEE70027BC
:1025C00000973A46694629480197FEF75BFC00B13F
:1025D000FEE7274C3020002120612448FEF7B7FC9D
:1025E0000822002121482369FEF7A4FC1F4848382F
:1025F000FEF7E4FB1D484838FEF7E9FA0122E060E7
:10260000D1031C48FEF7BEFD9FED1B0A3225DFF803
:102610006C908DED040A00260DF10408D9F8100025
:10262000C00702D00120606000E0676004A9E06894
:10263000FEF7CEF9E068A84201DA054602E0B042B2
:1026400000DD064601A89DED040A00F01BF8A16814
:1026500058F82100FDF7C6FD41EC100B08A053EC23
:10266000102BFFF7DBFAD9E700740040840000204C
:1026700004000020000C02400000000000000240A6
:1026800025660A0070B5254C0546606848B1D4ED52
:10269000020AB4EEE00AF1EE10FA0BD284ED020A5F
:1026A00011E084ED020A84ED030A20EE000A84EDB5
:1026B000040A0EE0D4ED030AB4EEE00AF1EE10FADB
:1026C00001DD84ED030AD4ED040A40EE000AC4EDF6
:1026D000040AC821401C90FBF1F201FB120000EE3D
:1026E000100A6060D4ED040AB8EEC01A80EE810AC8
:1026F00010EE100AFDF776FD41EC100BFFF79EFA85
:1027000051EC100BFDF781FD286094ED020A85ED78
:10271000010A94ED030A85ED020A70BD180000203D
:10272000CDCC4C3ECDCC4C3ECDCC4C3ECDCC4C3E1D
:10273000CDCC4C3E0000000000000000010203046C
:102740000607080964270008000000203C0000007C
:10275000B61C0008A02700083C00002074040000FC
:10276000C61C00080000000000000000000000007F
:102770000000000000000000000000000000000059
:1027800000000000000020410000000000000000E8
:102790000024F40000000000000000000000000021
:040000050800018965
:00000001FF
