:020000040800F2
:10000000180500209D010008A5010008A7010008AF
:10001000A9010008AB010008AD01000800000000C4
:10002000000000000000000000000000AF01000818
:10003000B101000800000000B30100080119000828
:10004000B7010008B7010008B7010008B7010008B0
:10005000B7010008B70100086D070008B7010008E4
:10006000B7010008B7010008B7010008B701000890
:10007000B7010008B7010008B7010008B701000880
:10008000B7010008B701000835060008B7010008ED
:10009000B7010008B7010008B7010008B701000860
:1000A000B7010008B7010008B7010008B701000850
:1000B000B7010008B7010008B7010008B701000840
:1000C000B7010008B7010008B7010008B701000830
:1000D000B7010008B7010008B7010008B701000820
:1000E000B7010008B7010008B7010008B701000810
:1000F000B7010008B7010008B7010008B701000800
:10010000B7010008B7010008B7010008B7010008EF
:10011000B7010008B7010008B7010008B7010008DF
:10012000B7010008B7010008B7010008B7010008CF
:10013000B7010008B7010008B7010008B7010008BF
:10014000B7010008B7010008B7010008B7010008AF
:10015000B7010008B7010008B7010008B70100089F
:10016000B7010008B7010008B7010008B70100088F
:10017000B7010008B7010008B7010008000000003F
:10018000B7010008B7010008DFF80CD000F020FA32
:10019000004800471D1C000818050020064880473D
:1001A00006480047FEE7FEE7FEE7FEE7FEE7FEE75C
:1001B000FEE7FEE7FEE7FEE7051A000889010008F2
:1001C00040EA01039B0703D009E008C9121F08C0D9
:1001D000042AFAD203E011F8013B00F8013B521E59
:1001E000F9D270472DE9FE4F81EA030404F0004480
:1001F00021F0004100944FF0000B23F0004350EA3F
:1002000001045ED052EA03045BD0C3F30A54C1F385
:100210000A552C44A4F2F3340194A0FB0254C1F318
:10022000130141F48011C3F3130343F4801301FB62
:10023000024400FB034E840A970A44EA815447EAC9
:100240008357A4FB076802958D0A05FB07854FEAD3
:10025000932C04FB0C542705029D4FEA065847EAED
:100260001637B5EB08056EEB070C870E920E47EAC2
:10027000811742EA8312A7FB0201B6EB0B0164EB84
:1002800000042B0D43EA0C335E1844EB1C50DA4695
:100290005146E7FB0201C5F313044FEA0B3343EA6F
:1002A00014534FEA0432019C43EA0603A4F10C0400
:1002B0000294009CCDE900B400F0EAF803B0BDE878
:1002C000F08F00200146F9E72DE9F04D81EA0304A3
:1002D00004F0004B21F0004514464FF0000A23F0D3
:1002E000004150EA050220D054EA01021DD0C5F3B6
:1002F0000A570246C5F31303C1F31300C1F30A56AC
:1003000040F4801543F48013A7EB0608101BD64673
:1003100008F2FD3873EB050002D308F1010801E093
:1003200092185B41B8F1000F03DA00200146BDE8E6
:10033000F08D00204FF48011064684460EE0171B16
:1003400073EB050705D3121B63EB050306434CEA69
:10035000010C49084FEA300092185B4150EA01074E
:10036000EDD152EA030012D082EA040083EA0501CB
:10037000084305D0101BAB4106D20122002306E042
:1003800000224FF0004302E06FF0010253101AEB1D
:1003900006004CEB085110EB0A0041EB0B01BDE8E5
:1003A000F04D00F066B800F0004230F000400AD096
:1003B000C10D01F56071C0F3160042EA0151C20897
:1003C00040071143704700200146704701F0004389
:1003D00030B421F0004150EA010206D00A0DA2F526
:1003E0006072C1F31301002A02DC30BC00207047A8
:1003F000440F44EAC104C100E01830BC00EBC25015
:10040000AFF300800029A8BF7047401C490008BF17
:1004100020F00100704710B4B0FA80FC00FA0CF034
:1004200050EA010404BF10BC704749B1CCF120046C
:1004300021FA04F411FA0CF118BF012121430843F9
:10044000A3EB0C01CB1D4FEA00614FEA102042BF25
:10045000002010BC704700EBC35010440029A4BF1B
:1004600010BC7047401C490008BF20F0010010BCC0
:10047000704710B5141E73F1000408DA401C41F1F6
:10048000000192185B411A4301D120F0010010BD18
:100490002DE9F04D92469B4611B1B1FA81F202E08E
:1004A000B0FA80F22032904600F0A4F804460F46DD
:1004B00040EA0A0041EA0B0153465A46084313D06A
:1004C000114653EA010019D0C8F14002504600F02D
:1004D000A0F805460E4650465946424600F08AF8B6
:1004E000084305D0012004E020463946BDE8F08DE0
:1004F0000020054346EAE0762C4337430A9863051B
:10050000E40AA0EB08000022FD0A44EA47540A303E
:1005100002D500200146E9E7010510196941DDE92E
:10052000084500196941BDE8F04DA2E72DE9F04DFD
:1005300000231A461B1A8A4103DB00200146BDE84E
:10054000F08DC1F30A52C1F3130141F480154FF04D
:10055000000BD10702D100186D41521E002704463E
:1005600040F2FF11384601EB620A3E4680460246E1
:1005700000204FF4801100F04CF8C2197141BB18F3
:1005800046EB0100B4EB030C75EB000C04D3E41A4A
:1005900065EB000517460E46241908F101006D4170
:1005A00080463428E3DDF91946EB0600091BA84113
:1005B00003D24FF0FF32134601E0002213461BEB3B
:1005C000070046EB0A51BDE8F04DFFF752BF0000AF
:1005D000064C074D06E0E06840F0010394E8070090
:1005E00098471034AC42F6D3FFF7D2FDD41F000871
:1005F000F41F0008202A04DB203A00FA02F1002050
:1006000070479140C2F1200320FA03F31943904050
:100610007047202A04DB203A21FA02F000217047BB
:1006200021FA02F3D040C2F120029140084319465A
:1006300070470000014800F0C5B9000048000020E4
:10064000484910B54A6822F440324A604A68436813
:100650001A434A6001684A6822F480724A6001685D
:100660004A68036942EA03224A6001684A6822F044
:1006700040724A6001684A6883681A434A600168A8
:100680008A6822F400628A6001688A68C3681A4333
:100690008A60816A6FF07062D14201688A6822F0D4
:1006A00070628A6001688A680CD0836A1A438A6023
:1006B00001688A6822F040528A6001688A68C36AC9
:1006C0001A4301E022F040528A6001688A6822F0F1
:1006D00002028A6001688A68836942EA43028A608A
:1006E000016A002901684A6815D042F400624A6034
:1006F00001684A6822F460424A6001684B684FF41E
:100700006044426A94FAA4F4B4FA84F4521EA240FB
:1007100013434B6002E022F400624A600168CA6A37
:1007200022F47002CA620168CA6A838B0E4C04EB21
:1007300003531A43CA6201688A6822F400728A600D
:1007400001688A68036B42EA43228A6001688A680A
:1007500022F480628A6001688A68406942EA8020E7
:10076000886010BD002301400000F0FF10B501209B
:1007700000F01CFB01490120086010BD04000020AE
:100780002DE9F04186B08846044614221D4968468A
:10079000FFF716FD1D4B05221D4D19689FED1A0A26
:1007A00091FBF2F002FB101691FBF2F002FB10102D
:1007B000491C45F8204000206C46196016E0371AA5
:1007C00097FBF2FC02FB1C777F1D97FBF2FC02FB00
:1007D0001C7755F8277000EE907A04EB8007401CD8
:1007E000F8EEE00A97ED001A00EE810A884201DA7D
:1007F0000528E4DB0A2900D11A6088ED000A06B05A
:10080000BDE8F081B01F00080000000018000020C3
:10081000B00000207047000078B50024009490F8E4
:100820003C20012A19D0012280F83C200A680723C5
:100830000568092A13D9EE680A3A02EB420293408E
:100840009E43EE600B788A680A3B03EB43039A40B1
:100850000368DD682A43DA6010E0022078BD2E6963
:1008600002EB420293409E432E610B788A6803EBB1
:1008700043039A4003681D692A431A614A681F238B
:10088000072A13D205686E6B521E02EB8202934058
:100890009E436E630B790A885B1E92B203EB83035F
:1008A0009A4003685D6B2A435A6327E005680D2A66
:1008B00012D22E6BD21F02EB820293409E432E6314
:1008C0000B790A88DB1F92B203EB83039A4003681B
:1008D0001D6B2A431A6311E0EE6A0D3A02EB8202A5
:1008E00093409E43EE620B790A880D3B92B203EB74
:1008F00083039A400368DD6A2A43DA62164B05686F
:10090000144A9D4206D10D68122D03D1556845F455
:100910008005556005689D4218D10B68102B01D0E9
:10092000112B13D1536843F4000353600968102955
:100930000CD10A490A4A0968B1FBF2F101EB8101C5
:10094000490000E0491E00910029FBD180F83C409D
:10095000002078BD00230140002001403C00002021
:1009600040420F0008B500F02AF80E498860694639
:10097000FFF706FF0098FFF716FD9FED0B1B53ECEA
:10098000112BFFF72FFC9FED0A1B53EC112BFFF7E8
:100990009BFCFFF71BFD00EE100A074801F026FA4A
:1009A00008BD0000080000206666666666660A40AC
:1009B0000000000000E06F40A400002070470068C5
:1009C000C06C704770B50446006801684268C1F3A6
:1009D0004001C2F3401251B34AB3216CC90603D49B
:1009E000216C41F400712164816811F0405F17D1DE
:1009F000A169A9B9C16A11F4700F02D081684905D3
:100A00000ED4416821F020014160206C20F48070F8
:100A10002064206CC00403D4206C40F001002064EA
:100A20002046FFF79FFF21686FF0120008602068E2
:100A300001684268C1F38001C2F3C01289B382B376
:100A4000216CC90603D4216C41F4005121648168F2
:100A500011F4401F1ED1816B11F4401F02D0816838
:100A6000490517D44168490514D4816811F0405FE5
:100A700010D1A16971B9416821F080014160206CF9
:100A800020F480502064206CC00503D4206C40F01A
:100A9000010020642046FFF7BDFE21686FF00C00C6
:100AA000086020680168426811F0010FC2F38012EB
:100AB0000ED06AB10068C0070AD0206C40F48030C4
:100AC0002064204600F046F821686FF001000860BD
:100AD000206801684268C1F34011C2F380620029B6
:100AE0000DD0002A0BD0616C41F0020161646FF0FF
:100AF000200505602046FFF761FF2068056070BD96
:100B000070B504004FF0000503D0206C002610B132
:100B100007E0012070BD666484F83C60204600F068
:100B20001BF8206CC00610D4206C20F4885040F0D4
:100B3000020020642046FFF783FD6664206C20F0ED
:100B4000020040F00100206400E0012584F83C60D0
:100B5000284670BD7047000000B50068104987B096
:100B600088421AD10F480021026842F48072026064
:100B7000006800F480700590022000900320CDE909
:100B800001016946084800F01DF9002211461220B3
:100B900000F06AFA122000F05BFA07B000BD000016
:100BA00000200140443802400000024018B50021F6
:100BB000009190F83C20012A07D0012280F83C20C7
:100BC00002689368DB0702D011E0022018BD936829
:100BD00043F001039360224A224B1268B2FBF3F206
:100BE00002EB420200E0521E0092002AFBD1026892
:100BF0009368DB0732D0036C40F20164A34343F4F3
:100C00008073036453685B0505D5036C23F40053BC
:100C100043F480530364036CDB0404D5436C23F07A
:100C20000603436400E0416480F83C100E4B6FF013
:100C30002201116001684A680C4C22434A605968DD
:100C40000068C90602D00A49884207D1816811F0BC
:100C5000405F03D1816841F080418160002018BD70
:100C60003C00002040420F0000230140200000040F
:100C70000020014070B54379012B1AD0012646713E
:100C80000223037105682C6840F6FE7393409C4371
:100C9000D1E900310B43934023432B6001680B687B
:100CA000C0249440A3430B600671002141710846A3
:100CB00070BD022070BD70B5040003D020790025FE
:100CC00010B105E0012070BD6571204600F008F804
:100CD00002202071256101202071002070BD0000DC
:100CE00000B500680C4987B0884212D10B4800213A
:100CF000026842F000520260006800F00050059067
:100D0000102000900320CDE901016946044800F05D
:100D100059F807B000BD00000074004040380240A0
:100D20000000024018B5046800940068104421B126
:100D3000143000900360002018BD0830F9E730B58A
:100D40004279012A16D001224271022303710368FD
:100D50001D6802FA01F425431D60002901680B6833
:100D60000AD00C6803F4802304F46014B3F5802FD8
:100D70000FD015E0022030BD0C6803F0040304F02E
:100D80003804042B0CD1382C0AD14B6843F00103F2
:100D900005E0B4F5601F03D14B6843F002034B60DC
:100DA000027100214171084630BD7047044910B5F9
:100DB0000A68024202D00860FFF7F7FF10BD00008A
:100DC000143C01402DE9F84FDFF87CB100224FF0D0
:100DD00001084FF0030A4FF00F090BF1040E00BF9A
:100DE0000B6808FA02F42340A3426ED14D68022D2D
:100DF00001D0122D0ED1D50800EB850CDCF8205067
:100E00005607F70E09FA07F6B5430E69BE402E43A2
:100E1000CCF82060066855000F790AFA05FC07F047
:100E2000030726EA0C06AF40374307604E68012EE1
:100E300005D0022E03D0112E01D0122E0ED18668BD
:100E4000CF6826EA0C06AF40374387604668A64362
:100E50000C79C4F30014944034434460C6688C6831
:100E600026EA0C06AC403443C4604C68E40065D507
:100E7000364C256845F480452560246822F003053A
:100E800004F480440094324C2E19D6F80848950793
:100E90002F0F09FA07F5AC432E4DA84201D10025CA
:100EA00024E02D4DA84201D101251FE02B4DA84281
:100EB00001D102251AE02A4DA84201D1032515E0EF
:100EC000284DA84202D1042510E037E0264DA84263
:100ED00001D105250AE0254DA84201D1062505E0EE
:100EE000234DA84201D1072500E00825BD40254338
:100EF000C6F80858DBF800405D464E689C43F60390
:100F000000D51C432C60DEF8004075464E689C43BB
:100F1000B60300D51C432C600B4D08352C684E6879
:100F20009C43F60200D51C432C60074D0C352C6801
:100F30004E689C43B60200D51C432C60521C102AFC
:100F4000FFF44EAFBDE8F88F003C0140443802404A
:100F5000003001400000024000040240000802404E
:100F6000000C024000100240001402400018024031
:100F7000001C02400AB1816170470904FBE70000D0
:100F800001480068704700004000002002480168E6
:100F9000491C016070470000400000200B4810B55C
:100FA000016841F400710160016841F480610160F1
:100FB000016841F480710160032000F075F80020A1
:100FC00000F006F800F018F8002010BD003C0240C8
:100FD00010B5044607484FF47A710068B0FBF1F091
:100FE00000F007FB00222146501E00F03DF80020D3
:100FF00010BD00003C00002010B5072000F054F8A0
:10100000002211466FF00B0000F02EF8002211466E
:101010006FF00A0000F028F8002211466FF0090076
:1010200000F022F800221146501F00F01DF80022A7
:101030001146101F00F018F800221146901E00F013
:1010400013F80022BDE810401146501E00F00CB805
:1010500000F01F02012191404009800000F1E020D2
:10106000C0F8001170470000F0B40E4B1B680C462E
:10107000C3F30223C3F10705042D00D90425191D6C
:10108000072901D2002300E0DB1E012606FA05F144
:10109000491E214099409E40761E16403143F0BCC7
:1010A00000F01EBC0CED00E0064900F007020868E5
:1010B0004FF6FF03184040EA0220034A104308603D
:1010C000704700000CED00E00000FA052DE9F04744
:1010D000DFF8649105460F46D9F8000000F00F01D3
:1010E000F8B28046B94208D2014689F80010D9F812
:1010F000000000F00F00B84274D128784F4C8007F0
:1011000005D52068A96820F0F00008432060287801
:10111000C00759D049496868083901281AD00228FF
:101120001BD0032819D00968890700295ADA2168D9
:1011300021F0030101432160FFF722FF69680646A1
:1011400041F28830012911D002291DD0032982469D
:1011500027D035E009688903E7E709688901E4E7F2
:10116000FFF70EFF811B514501D926E0824620681A
:10117000C0F381000128F3D126E000BFFFF700FF94
:10118000811B514501D918E082462068C0F38100D7
:101190000228F3D118E000BFFFF7F2FE811B514592
:1011A0000BD82068C0F381000328F5D10CE000BF04
:1011B000FFF7E6FE811B514502D90320BDE8F08709
:1011C000206810F00C0FF3D1D9F80010484601F058
:1011D0000F01B94208D980F80080006800F00F00C4
:1011E000B84201D00120E9E72878400705D52068FA
:1011F000E96820F4E050084320602878000706D50D
:101200002068296920F4604040EAC100206000F0B5
:1012100021F82168F02292FAA2F201F0F001B2FA6C
:1012200082F2D140064A515CC8400649086000205D
:10123000FFF7CEFE0020C1E7003C02400838024024
:10124000C41F00083C0000200148006870470000EF
:101250003C00002030B51948006810F00C01184817
:1012600012D0441004290ED008290DD11349091FAA
:101270000A6802F03F030A68550247F6C07204D5B7
:10128000B4FBF3F003E0204630BDB0FBF3F00B6895
:101290000968134092FAA2F2B2FA82F2D34058439C
:1012A0004FF4403292FAA2F201F44031B2FA82F2E3
:1012B000D140491C4900B0FBF1F030BD0838024074
:1012C0000024F4002DE9F84F0546DFF8FC92007881
:1012D000A9F1040BC007ABF1040449D0D9F8001000
:1012E0004846C1F38101012908D00068C0F381009C
:1012F00002280AD1DBF80000400206D520688003EE
:1013000036D5686800286ED032E06868B0F5803F56
:1013100010D0B0F5A02F206810D020F480302060CD
:10132000206820F4802020606868A0B1FFF728FEC4
:1013300006460CE0206840F48030F4E740F480205A
:101340002060F7E7FFF71CFE801B642871D8206837
:101350008003F7D50CE0FFF713FE064605E000BF5B
:10136000FFF70EFE801B6428F0D820688003F7D4B6
:101370002878964F80074FF0010A4FF0000841D5BA
:10138000D9F80010484611F00C0F08D00068C0F3DF
:10139000810002280AD1DBF80000400206D4206850
:1013A000800713D5E86801281DD10FE0E868D8B19F
:1013B000C7F800A0FFF7E4FD064604E0FFF7E0FDF4
:1013C000801B0228C2D820688007F7D52068F82241
:1013D00092FAA2F22969B2FA82F220F0F800914062
:1013E000084320600EE0ECE0C7F80080FFF7C8FD7E
:1013F000064604E0FFF7C4FD801B022819D82068C8
:101400008007F7D42878000724D57148696989B125
:10141000C0F800A0FFF7B4FD064604E0FFF7B0FDFA
:10142000801B022805D868486C3000688007F5D515
:1014300010E07AE0C0F80080FFF7A2FD064604E065
:10144000FFF79EFD801B02286FD85F486C30006854
:101450008007F5D42878400753D55B4838300168B9
:1014600041F080510160006800F0805000905948C0
:10147000016841F480710160FFF782FD064604E0D7
:10148000FFF77EFD801B02284FD852480068C00538
:10149000F6D54D4EA868683601280FD0052830686B
:1014A00010D020F001003060306820F0040030607F
:1014B000A868B8B1FFF764FD00900FE0306840F015
:1014C0000100F4E740F004003060F7E7FFF758FD53
:1014D0000099411A41F2883081426AD83068800709
:1014E000F4D50EE0FFF74CFD009007E0FFF748FD54
:1014F0000099411A41F2883081425AD830688007F9
:10150000F4D4A869E8B3D9F80010C1F38101022925
:1015100057D00228C7F8608003D0FFF731FD054699
:101520004AE0FFF72DFD064605E042E0FFF728FD03
:10153000801B02283DD820688001F7D4D5E9070137
:10154000084347F6C07292FAA2F2696AB2FA82F2CE
:101550009140AA6A4FF0FF3303EB52024FF440333D
:1015600093FAA3F3B3FA83F39A40114308434FF07D
:10157000706292FAA2F2E96AB2FA82F291400843EA
:1015800000E01CE0CBF80000C7F860A0FFF7F8FC13
:10159000054604E0FFF7F4FC401B022809D8206848
:1015A0008001F7D50BE000BFFFF7EAFC401B0228E3
:1015B00002D90320BDE8F88F20688001F4D4002010
:1015C000F8E70120F6E70000083802400000474233
:1015D000800E4742007000404FF0E0210428086967
:1015E00003D020F004000861704740F00400FAE7DF
:1015F000704710B5401EB0F1807F01D3012010BDAF
:101600004FF0E02460610F21601700F069F90020BD
:10161000A06107202061002010BD10B5FFF7E8FF92
:1016200010BD00007FB5124810490024C0E9001425
:10163000046184614FF0007104628160C900C1627D
:101640000125C460C56145610A4904638162FFF7F1
:1016500057FA00B1FEE70095CDE901546946044808
:10166000FFF7DAF8002800D0FEE77FBD0020014038
:10167000480000200100000F2DE9F04F904887B08E
:10168000002400688E4940F010000860086800F0EF
:1016900010000590086840F004000860086800F039
:1016A00004000590086840F080000860086800F0B9
:1016B000800005900846006840F001000860086856
:1016C00000F001000590086840F00200086008681A
:1016D00000F002000590086840F008000860086803
:1016E000002200F00800059008217648FFF742FC30
:1016F000012211467448FFF73DFC4FF21009002209
:1017000049467248FFF736FC4CF6804A00225146A3
:101710006C48FFF72FFC4FF4405B002259466C48A1
:10172000FFF728FC00224FF480716848FFF722FC85
:10173000082601250096CDE90154694661480394C5
:10174000FFF740FB0095CDE9015469465E480394DC
:10175000FFF738FB00960226CDE901640527CDE9A5
:10176000034769465848FFF72DFB5A480095CDE9D5
:10177000010469465848FFF725FBE0200090CDE9B9
:101780000164CDE9034769465348FFF71BFB4FF05F
:101790000408CDE9008469464D480294FFF712FB26
:1017A000A8020090CDE90164CDE9034769464848A5
:1017B000FFF708FBCDF80090CDE901546946434896
:1017C0000394FFF7FFFACDF800A0CDE90154694674
:1017D0003C480394FFF7F6FACDF800B0CDE9015488
:1017E00069463B480394FFF7EDFA28020090CDE9E3
:1017F0000154694635480394FFF7E4FA89200090C4
:10180000CDE90154694631480394FFF7DBFA4FF400
:10181000AA770097CDE9015469462C480394FFF755
:10182000D1FA0097CDE90154694626480394FFF7A1
:10183000C9FA4FF4A4500090CDE901640620CDE927
:10184000034069462048FFF7BDFA6802CDE900046D
:10185000694621480294FFF7B5FA4FF4E050009032
:10186000CDE901640A20CDE9034069461A48FFF733
:10187000A9FA2020CDE90004694614480294FFF734
:10188000A1FA4FF4107000901220CDE90105CDE9C6
:10189000034869460E48FFF795FA10480096CDE9CF
:1018A000010469460748FFF78DFA00221146062019
:1018B000FFF7DAFB0620FFF7CBFB07B0BDE8F08FA0
:1018C000303802400010024000080240000C024084
:1018D000000402400000111000000240000012103D
:1018E0000907090E002806DA00F00F0000F1E020D9
:1018F00080F8141D704700F1E02080F80014704754
:1019000070B5FFF743FBFFF788FE114C2078800786
:1019100002D11048FFF74AF90F4A10490020136816
:1019200083B10B685B1C0B60202B0CDD08600C493D
:1019300003250B685B1C93FBF5F605FB16330B6068
:10194000106000E008602068401C206070BD00004E
:101950000C000020480000200400002000000020AF
:101960000800002030B5254893B00025016841F0FB
:1019700080510160006800F080501190204801689B
:1019800041F4804101600068022400F4804011901D
:1019900001200090000401908001CDE9064008205C
:1019A00008904FF4A870CDE9090407200B90684611
:1019B000FFF788FC00B1FEE70CA90F2081E8310099
:1019C0004FF4C0500F904FF4A050109005210CA878
:1019D000FFF77CFB00B1FEE7FFF736FCC821B0FB48
:1019E000F1F0FFF706FE0420FFF7F6FD0022114696
:1019F000501EFFF739FB13B030BD000040380240E5
:101A0000007000401048016841F4700101600F4807
:101A1000016841F0010101600C4A002108321160A7
:101A200002680B4B1A400260031D0A4A1A600268E2
:101A300022F48022026005480C30016002495806F9
:101A4000803908607047000088ED00E000380240EF
:101A5000FFFFF6FE1030002400B52DED048BB0EE34
:101A6000409AF0EE609A83B051EC190BFEF75EFDE0
:101A700041EC180B18EE100A18EE901A8DED008B41
:101A8000002818BF0120084320F00040C0F17F600B
:101A900000F1E040C00F14D019EE101A19EE900AB0
:101AA0008DED009B002918BF0121084320F0004064
:101AB000C0F17F6000F1E040C00F04BF012000F0E2
:101AC00017F8B0EE480A03B0F0EE680ABDEC048BDC
:101AD00000BD02E008C8121F08C1002AFAD17047F1
:101AE0007047002001E001C1121F002AFBD170479E
:101AF00001490860704700004400002070B50446AA
:101B0000284D000601D5012200E000228021284650
:101B1000FFF730FA60064FF4806101D5012200E042
:101B200000222846FFF726FAA0064FF4006101D5EF
:101B3000012200E000222846FFF71CFAE0064FF4DD
:101B4000804101D5012200E000222846FFF712FA69
:101B500020074FF4004101D5012200E00022284671
:101B6000FFF708FA104D60074FF4805101D50122AC
:101B700000E000222846FFF7FDF9A0074FF40051CE
:101B800001D5012200E000222846FFF7F3F90748BB
:101B9000E2074FF4807100D00122BDE87040FFF7EA
:101BA000E9B900000010024000040240000C0240AD
:101BB0000A2190FBF1F201FB12010020012906D05D
:101BC000042904D08020052905D0062903D040F03F
:101BD0004000022907D040F02000012905D0042947
:101BE00003D0072901D040F01000CA0703D104290F
:101BF00009D040F0080001290FD002290BD0032999
:101C000009D0072909D040F00400012905D007298F
:101C100003D0002901D040F0020070471CB5FFF747
:101C2000BDF9FFF79FFEFFF727FDFFF7FBFC6B49B0
:101C3000694808600846FFF73EF800B1FEE700205B
:101C400000900246019069466448FFF713F800B11E
:101C5000FEE7634C30200021E0606048FFF76FF83A
:101C6000082200215D48E368FFF75CF85B484838CC
:101C7000FEF79CFF59484838FEF7A1FE0122594D56
:101C8000D603A06031462846FFF774F9DFF84CA16F
:101C90004FF003090AF1140A4FF4807B4FF4805887
:101CA000B7106168484691FBF0F209FB1212EAB3E3
:101CB00091FBF0F209FB1210216801280AEB810068
:101CC00090ED000A5DD0BDEEC00A10EE100AFFF7DD
:101CD0006FFFFFF713FF012259462846FFF74AF925
:101CE000002201212846FFF745F900220821284655
:101CF000FFF740F9012280212846FFF73BF92079C0
:101D0000C007CED1002231462846FFF733F9002222
:101D100039462846FFF72EF9002241462846FFF7AC
:101D200029F92068E8B3012852D000E007E0022832
:101D3000B7D1012239462846FFF71CF9B1E72168DF
:101D4000DFED290A0AEB8100642190ED000A20EE04
:101D5000200ABDEEC00A10EE100A90FBF1F201FB62
:101D60001200FFF725FFFFF7C9FE0022594628465B
:101D7000FFF700F9012211462846FFF7FBF8002281
:101D80001DE0F2EE040A0A2120EE200ABDEEC00A90
:101D900010EE100A90FBF1F201FB1200FFF708FFB2
:101DA00000E012E0FFF7AAFE002259462846FFF79E
:101DB000E1F8002201212846FFF7DCF80122082182
:101DC0002846FFF7D7F8002295E701223146B2E70F
:101DD00001224146AFE7000000740040900000205F
:101DE00008000020000C02400000C8422DE9F0412C
:101DF0006C4C054660EE000AA068B0F1814F05DD2D
:101E000084ED020A84ED030AC4ED040A65486649BC
:101E10006268006A0A23A1F12807A1F1140852B1EF
:101E2000322692FBF6FC06FB1C22A2B3D4ED040A78
:101E300040EE000A48E0626994ED021A07EB820660
:101E400086ED001A94ED031A08EB8206521C86ED0B
:101E5000001A052692FBF6FC84ED020A06FB1C2202
:101E600084ED030A6261A269052A01DB052200E014
:101E7000521CA261E26994ED040A01EB8206521C35
:101E800086ED000A92FBF3F603FB1622E2610A28B4
:101E900002DB0A2001E004E0401C2062C4ED040AD9
:101EA00027E0E26994ED041A01EB8206521C86EDEC
:101EB000001A92FBF3F603FB1622E2610A2801DB0B
:101EC0000A2000E0401C2062C4ED040AD4ED020A9E
:101ED000B4EEE00AF1EE10FA02D284ED020A08E054
:101EE000D4ED030AB4EEE00AF1EE10FA01DD84ED60
:101EF000030A9FED2E0A0022206A06E001EB82030E
:101F0000521CD3ED000A30EE800A8242F6DB322109
:101F1000484300EE900AB8EEE01AC0EE010A10EE57
:101F2000900AFEF740FA41EC100BFFF795FD51ECDB
:101F3000100BFEF74BFA286097ED000A0121A0690B
:101F40000CE000BF07EB8102D2ED000AF4EEC00AFC
:101F5000F1EE10FA01D2B0EE600A491C8142F1DBC9
:101F600085ED010A424698ED000A01210CE000BF10
:101F700002EB8103D3ED000AF4EEC00AF1EE10FA91
:101F800001DDB0EE600A491C8142F1DB85ED020AF9
:101F900060686421401C90FBF1F201FB120060605C
:101FA000BDE8F08118000020EC00002000000000D7
:101FB000CDCC4C3ECDCC4C3ECDCC4C3ECDCC4C3E95
:101FC000CDCC4C3E000000000000000001020304E4
:101FD00006070809F41F0008000000204800000060
:101FE000D21A00083C20000848000020D00400005D
:101FF000E21A0008000000000000000000000000DD
:1020000000000000000000000000000000000000D0
:10201000000000000000204100000000000080BF20
:1020200000000000000000000000000000000000B0
:0C2030000024F40000000000000000008C
:040000050800018965
:00000001FF
